:060000000A128A11FC2F18
:100F7E0083160313860183120313860106144D3064
:100F8E00F2001930F1004F30F000F00BCC2FF10BC6
:100F9E00CC2FF20BCC2FD32F8312031306108614F3
:100FAE004D30F2001930F1004F30F000F00BDD2F14
:100FBE00F10BDD2FF20BDD2FE42F831203138610BE
:100FCE0006154D30F2001930F1004F30F000F00BE5
:100FDE00EE2FF10BEE2FF20BEE2FF52F83120313E4
:100FEE000611C52F0A128A11002883010A128A11CE
:020FFE00BF2F03
:02400E00BA3FB7
:00000001FF
